:100000000EC028C027C026C025C024C023C022C0DF
:1000100021C020C01FC01EC01DC01CC01BC0112499
:100020001FBECFE5D2E0DEBFCDBF10E0A0E6B0E05E
:10003000EEE9F0E002C005900D92A036B107D9F7C5
:1000400010E0A0E6B0E001C01D92A036B107E1F7D4
:1000500002D023C0D5CFB89AB99A81EA8ABD84E08C
:1000600083BF80E886B963E047EC52E067B946B9E0
:100070003699FECF24B135B136952795369527951B
:1000800057B946B93699FECF84B195B128BD96953A
:0E00900087959695879589BDE9CFF894FFCFA7
:00000001FF
